:020000040800F2
:1000000000000220410C0008890C0008890C00083F
:10001000890C0008890C0008890C00080000000009
:10002000000000000000000000000000890C000833
:10003000890C000800000000890C0008F90600087F
:10004000890C0008890C0008890C0008890C00083C
:10005000890C0008890C0008890C0008890C00082C
:10006000890C0008890C0008890C0008890C00081C
:10007000890C0008890C0008890C0008890C00080C
:10008000890C0008890C0008890C00080000000099
:10009000000000000000000000000000890C0008C3
:1000A000890C0008890C0008890C0008890C0008DC
:1000B000890C0008890C0008890C0008890C0008CC
:1000C000890C0008890C0008890C0008890C0008BC
:1000D000890C0008890C0008890C0008890C0008AC
:1000E000890C0008890C0008890C0008890C00089C
:1000F000890C0008890C0008890C0008890C00088C
:1001000000000000890C0008890C0008890C000818
:1001100000000000000000000000000000000000DF
:10012000890C0008890C0008890C0008890C00085B
:10013000890C000800000000000000000000000022
:10014000000000000000000000000000890C000812
:10015000890C0008890C0008890C0008890C00082B
:10016000890C0008890C0008000000000000000055
:10017000000000000000000000000000000000007F
:1001800000000000890C00080000000000000000D2
:10019000890C00082DE9F04F8FB000F087FA00F0CD
:1001A00073FB00F0C9FACE48DFF8B4B300F098FB57
:1001B000CC4800F095FBCC4800F092FBCB4800F017
:1001C0008FFBCB4800F08CFBC64800F089FBC94888
:1001D00000F086FBC84800F083FBC84800F080FBB5
:1001E000C74800F07DFBC74800F07AFBC64800F026
:1001F00077FBC64800F074FBC54800F071FBC548AA
:1002000000F06EFB002000F053FC44382F28F6D895
:1002100001A353F820F000BFBB030008FF01000852
:10022000FF010008FF010008FF010008FF010008AE
:10023000FF010008FF010008FF010008FF0100089E
:10024000FF010008FF010008FF010008FF0100088E
:10025000F3020008D9020008FF010008FF010008AE
:10026000FF010008FF010008FF010008FF0100086E
:10027000FF010008FF010008FF010008FF0100085E
:10028000FF010008FF010008FF010008FF0100084E
:10029000FF010008FF010008BB030008FF01000880
:1002A000FF010008FF010008FF010008FF0100082E
:1002B000FF010008FF010008FF010008FF0100081E
:1002C000FF010008FF010008FF010008FF0100080E
:1002D000F3020008D902000800F07AFA04468E48BA
:1002E00000F0FEFA002C40F0C1818C4800F0F8FAD2
:1002F00085E77B48DFF8E89100F0F2FA794800F0F2
:10030000EFFA874800F0ECFA764800F0E9FA854801
:1003100000F0E6FA844800F0E3FA844800F0E0FADE
:100320004FF001088248834F834E00F0D9FA4046CF
:1003300000F0E4FA814800F0D3FA002000F0B8FBA6
:100340004FF0000A484600F0CBFA554603E000F0B3
:10035000C7FA0A2D21D0C82000F0DCF900F038FAE5
:1003600001350446384600F0BBFA284600F0C6FACC
:10037000304600F0B5FA7248002CE8D0204600F074
:1003800009FB584600F0ACFA0EAB03EB8A030A2DCA
:1003900043F8284C0AF1010ADDD1BAF1000F40F010
:1003A0002981484608F1010800F09AFAB8F1060FD1
:1003B000B8D1644800F094FA21E700F099FB48486E
:1003C000DFF8A08100F08CFA464800F089FA5E4818
:1003D00000F086FA434800F083FA5C4800F080FAA7
:1003E0005B4800F07DFA0023039301931F461E46ED
:1003F0000293994640E0019B002B6ED1039BDDF8F0
:10040000049001330393012301935B2000F060FA11
:10041000284600F073FA4F4800F062FA204600F0D8
:10042000B9FA404600F05CFA504600F077FB00F065
:1004300057FA404600F054FA384600F0ABFA40460E
:1004400000F04EFA009800F0A5FA434800F048FA90
:10045000039800F053FA414800F042FA029800F085
:100460004DFA1F4800F03CFA0136642000F052F9C2
:10047000C82E274600F0908000F00EFB20F02000F0
:1004800040B2512800F0888000F03EF9054600F0A7
:100490009FF9044600286FD0E6B1002F40F09E80FF
:1004A000BA462946204600F059FB00F079FBB4F526
:1004B000FA6F00909FD342F210739C4204D84FF021
:1004C0000009CDF80490A0E7B9F1000F4CD000234B
:1004D00001939AE73746B246E3E74FF0000994E705
:1004E0008C0C0008900C0008BC0C0008E80C0008FC
:1004F000100D0008340D0008400D0008580D0008CC
:10050000700D00089C0D0008A80D0008DC0D000807
:100510000C0E00082C0E0008B4100008C4100008CF
:10052000480E0008640E0008880E0008B00E00088F
:10053000D40E0008040F0008080F0008E00E0008A1
:100540000C0F0008600F0008900F0008A80F0008AB
:10055000F40F0008281000083010000838100008B8
:10056000180F00082C100008029BCDF804900133EE
:1005700002934FF0010948E7404800F0B1F92846DE
:1005800000F0BCF93E4800F0ABF90136642000F001
:10059000C1F8C82E7FF470AF029B3A48009300F078
:1005A0009FF9394800F09CF9142000F0A7F937486A
:1005B00000F096F9039800F0A1F9354800F090F9A1
:1005C000642000F09BF9314800F08AF9009B18463E
:1005D00000F094F92F4800F083F910E60146384600
:1005E00000F090FA642282462146384600F0A8FACC
:1005F000074656E7284800F073F9002404AA4FF094
:10060000FF3602EB8A00214652F8043B9E4228BF87
:100610001E469C4238BF1C4682421944F4D1B1FBAD
:10062000FAFA1E4800F05CF9504600F0B3F958465B
:1006300000F056F91A4800F053F9304600F0AAF9D4
:10064000584600F04DF9174800F04AF9204600F0EE
:10065000A1F9584600F044F9134800F041F9A01BF5
:1006600000F098F9584600F03BF99AE6204600F071
:1006700091F9584600F034F9C1E500BF10100008A8
:1006800014100008401000085C10000874100008E6
:10069000801000089C100008200F0008340F00088C
:1006A0003C0F0008440F00084C0F000811490A6B6A
:1006B00042F0010210B40A630A6C42F400324FF0B7
:1006C000E02042F001020A644FF08043002243F62A
:1006D0007F640721446182610F24016101214FF091
:1006E000FF309C62D8625DF8044B59611A615A620E
:1006F0001960704700380240024A136801331360E2
:10070000704700BF00000020014B1868704700BF11
:1007100000000020034A116813685B1A8342FBD370
:10072000704700BF000000204FF08042516A536ABA
:100730005B1A8342FBD370470C4B1A6822F4406269
:100740001A601A6842F480621A605A684FF4001105
:1007500022F020025A6099611A6822F003021A609E
:10076000DA6822F00302DA60704700BF000002403E
:1007700038B5164C2023A3610A20FFF7D5FF4FF4AC
:1007800000134FF08042A361556A49F6404103E0EF
:10079000536A5B1B8B4215D8206910F00100F7D01B
:1007A0004FF080420949546A49F6404003E0536AD9
:1007B0001B1B834207D80B69DB07F8D44FF080433B
:1007C000586A001B38BD002038BD00BF0000024041
:1007D00008B5FFF7CDFF38B1044B40F2571202FBCA
:1007E00000F0A3FB0030800908BD00BF1F85EB515E
:1007F000092870B504460FD8214B224AA3FB0413E5
:10080000DB0803EB8303A4EB43043034E4B2136846
:100810001B06FCD5546070BD194B6328A3FB002553
:100820004FEAD5050FD8164B164AA3FB0513DB0874
:1008300003EB8303A5EB43013031C9B213681806FB
:10084000FCD55160D8E7A3FB0526B0F57A7F4FEAC7
:10085000D6060FD20A4B0B4AA3FB0613DB0803EBA9
:100860008303A6EB43013031C9B213681E06FCD5E1
:100870005160D8E7A3FB0623D808FFF7B9FFE9E7E3
:10088000CDCCCCCC004400400F4B10491A6822F06C
:10089000F00210B41A601A6842F0A0021A601A6AD4
:1008A00022F47F421A621A6A42F4EE421A629A688D
:1008B0008B2442F20C0042F0A0029A608C605DF83A
:1008C000044BC860704700BF000002400044004075
:1008D000024A13681B06FCD5506070470044004074
:1008E000017841B1044A13681B06FCD5516010F829
:1008F000011F0029F7D1704700440040092870B556
:1009000004460FD8214B224AA3FB0413DB0803EB58
:100910008303A4EB43043034E4B213681B06FCD514
:10092000546070BD194B6328A3FB00254FEAD50521
:100930000FD8164B164AA3FB0513DB0803EB830302
:10094000A5EB43013031C9B213681806FCD55160DC
:10095000D8E7A3FB0526B0F57A7F4FEAD6060FD27B
:100960000A4B0B4AA3FB0613DB0803EB8303A6EB3E
:1009700043013031C9B213681E06FCD55160D8E777
:10098000A3FB0623D808FFF733FFE9E7CDCCCCCC97
:1009900000440040F8B53C4CA4FB003464096421D9
:1009A000B0F57A7F01FB140537D2384B3849A3FBE9
:1009B0000423DB0803EB8303A4EB43043034E4B2E9
:1009C0000B681E06FCD5324A4C6013681C06FCD529
:1009D0002E23092D53602E4A0AD913681906FCD517
:1009E0002A4BA3FB0513DB083033DBB2536004E072
:1009F00013681806FCD530235360244B244AA3FB0C
:100A00000513DB0803EB8303A5EB43013031C9B2C7
:100A100013681B06FCD55160F8BD1C4BA3FB0421D9
:100A200042F20F7290424FEAD1060FD8174B184A84
:100A3000A3FB0613DB0803EB8303A6EB4301303172
:100A4000C9B213681F06FCD55160AEE7114AA3FB7B
:100A5000061790424FEAD7070FD80C4BA3FB07238A
:100A6000DB0803EB8303A7EB43013031084AC9B22B
:100A700013681B06FCD55160D8E7A3FB0723D808F1
:100A8000FFF7B6FEE9E700BF1F85EB51CDCCCCCC1C
:100A9000004400409F860100044B1A68920646BF3E
:100AA000586840B24FF0FF30704700BF004400402C
:100AB000F8B530B90D4A13689B06FCD55068C0B232
:100AC000F8BD0546FFF720FE084F064604E0FFF795
:100AD0001BFE831BAB4206D23C6814F02004F6D008
:100AE0007868C0B2F8BD2046F8BD00BF00440040A1
:100AF0000249034A00230B70137070470500002061
:100B000004000020091A11F1320F05DB3229D4BF8D
:100B10000021012148007047012070470128034649
:100B200005D0044A0448022B18BF104670470348FA
:100B3000704700BFEC100008E0100008D410000857
:100B400052B1091A0029B8BF49424FF47A7303FB26
:100B500001F1B1FBF2F070471046704710B40C4C35
:100B60000C4A237842F8330002EBC3020133516090
:100B7000094AA2FB031202F4FE7101EB92029B1AD6
:100B8000237013B9054B01221A705DF8044B7047AE
:100B90000500002008000020CDCCCCCC04000020B3
:100BA0002DE9F043224A234B10781D7820B9012DFE
:100BB00039D96E1E844601E0AC4604261E481F4CFF
:100BC0000CF101034FF0000E591EA4FB0128A4FBF9
:100BD000032929F0030228F0030702EB990207EB2F
:100BE00098079A1AC91B50F8322050F83110013377
:100BF000521AA3EB0C01002A01F1FF31B8BF524297
:100C0000B1429644E0D385B9042500EBC50500EB5D
:100C1000CC006B684068181A05D04FF47A7303FB58
:100C20000EFEBEFBF0F0BDE8F083013DEDB2ECE757
:100C3000040000200500002008000020CDCCCCCC12
:100C40000B4885460B480C490C4A002302E0D45857
:100C5000C4500433C4188C42F9D3094A094C002308
:100C600001E013600432A242FBD3FFF793FA70470E
:100C700000000220000000200000002000110008F9
:100C80000000002030000020FEE700000D0A0000F8
:100C90003D3D3D3D3D3D3D3D3D3D3D3D3D3D3D3D84
:100CA0003D3D3D3D3D3D3D3D3D3D3D3D3D3D3D3D74
:100CB0003D3D3D3D3D3D3D3D0D0A00002020446948
:100CC0007374616E6365204D6561737572656D65E2
:100CD0006E742026204D6F74696F6E20416E616CBA
:100CE000797A65720D0A0000202053544D3332206A
:100CF0004E55434C454F2D463431315245207C20D2
:100D0000426172652D4D6574616C0D0A0000000032
:100D1000202048432D53523034207C204750494FE7
:100D2000202B2054494D32202B2055534152543210
:100D30000D0A0000576972696E673A0D0A000000DB
:100D4000202048432D535230342054524947202DFF
:100D50003E205041350D0A00202048432D5352308B
:100D600034204543484F202D3E205041300D0A008D
:100D70002020554152542054582F52582020202DC5
:100D80003E205041322F504133202853542D4C697E
:100D90006E6B20564350290D0A0D0A00436F6D6D8E
:100DA000616E64733A0D0A00202052202D20526596
:100DB000666572656E6365204D6F6465202831300D
:100DC0002073616D706C65732078203520706F73AF
:100DD0006974696F6E73290D0A0000002020442099
:100DE0002D2044796E616D6963204D6F646520200C
:100DF00020286D6F74696F6E207472656E64202B8D
:100E0000206576656E7473290D0A0000202053203A
:100E10002D2053696E676C652073686F74206D6553
:100E200061737572656D656E740D0A000D0A3E2062
:100E300053656E6420205220204420206F722020B1
:100E40005320203A200000002020202020202020B5
:100E50005245464552454E4345204D4F44450D0AA7
:100E600000000000506C61636520746172676574F6
:100E700020617420612066697865642064697374F8
:100E8000616E63652E0D0A00507265737320616E8A
:100E900079206B657920746F207265636F726420AE
:100EA00031302073616D706C65732C0D0A00000089
:100EB0007468656E206D6F766520746F2074686548
:100EC000206E65787420706F736974696F6E2E0D73
:100ED0000A0D0A00506F736974696F6E200000007C
:100EE000202D3E20507265737320616E79206B65F2
:100EF00079207768656E2072656164792E2E2E20C8
:100F00000000000020205B005D20000054494D459A
:100F10004F55540D0A00000020636D0D0A000000BB
:100F200020202D2D2D205374617473202D2D2D0D17
:100F30000A00000020204156473A200020204D4959
:100F40004E3A200020204D41583A200020204E4F9C
:100F500049534520286D61782D6D696E293A20002E
:100F60005265666572656E6365206D6F64652063AA
:100F70006F6D706C6574652E2052657475726E6944
:100F80006E6720746F206D656E752E0D0A0000006F
:100F9000202020202020202044594E414D4943202C
:100FA0004D4F44450D0A0000466F726D61743A2042
:100FB0005B74735F6D735D2C20646973745F636D24
:100FC0002C205452454E442C207370645F636D2F67
:100FD000732C206176675F7370645F636D2F732C71
:100FE000206E6561725F65762C206661725F657642
:100FF0000D0A000053656E642027512720746F206E
:1010000073746F70206561726C792E0D0A0D0A0081
:101010005B0000005D204F55545F4F465F52414ECC
:1010200047450D0A000000005D2C20002C20000028
:101030002C206E6561723D002C206661723D0000BF
:101040000D0A2D2D2D2053657373696F6E20537516
:101050006D6D617279202D2D2D0D0A004E65617226
:10106000206576656E74732028656E74657265649C
:10107000203C000020636D207A6F6E65293A2000C5
:101080000D0A46617220206576656E7473202865AE
:101090006E7465726564203E000000000D0A5265A2
:1010A0007475726E696E6720746F206D656E752E33
:1010B0000D0A00000D0A44697374616E63653A207D
:1010C000000000004F5554204F462052414E4745E6
:1010D0000D0A0000415050524F414348494E4700CD
:1010E00052455452454154494E47200053544154AF
:0810F000494F4E415259200006
:0410F800F8B500BF88
:0410FC00F8B500BF84
:0400000508000C41A2
:00000001FF
